{
  "contractName": "AudioNFT",
  "abi": [
    {
      "inputs": [],
      "stateMutability": "nonpayable",
      "type": "constructor"
    },
    {
      "inputs": [],
      "name": "CanBeCalledOnlyByOwner",
      "type": "error"
    },
    {
      "inputs": [
        {
          "internalType": "bool",
          "name": "isOnSale",
          "type": "bool"
        }
      ],
      "name": "OnSaleInvalid",
      "type": "error"
    },
    {
      "inputs": [],
      "name": "PriceCannotBeNegative",
      "type": "error"
    },
    {
      "inputs": [
        {
          "internalType": "uint256",
          "name": "askingPrice",
          "type": "uint256"
        },
        {
          "internalType": "uint256",
          "name": "txValue",
          "type": "uint256"
        }
      ],
      "name": "PriceNotMet",
      "type": "error"
    },
    {
      "inputs": [
        {
          "internalType": "uint256",
          "name": "tokenId",
          "type": "uint256"
        }
      ],
      "name": "TokenIdInvalid",
      "type": "error"
    },
    {
      "anonymous": false,
      "inputs": [
        {
          "indexed": true,
          "internalType": "address",
          "name": "owner",
          "type": "address"
        },
        {
          "indexed": true,
          "internalType": "address",
          "name": "approved",
          "type": "address"
        },
        {
          "indexed": true,
          "internalType": "uint256",
          "name": "tokenId",
          "type": "uint256"
        }
      ],
      "name": "Approval",
      "type": "event"
    },
    {
      "anonymous": false,
      "inputs": [
        {
          "indexed": true,
          "internalType": "address",
          "name": "owner",
          "type": "address"
        },
        {
          "indexed": true,
          "internalType": "address",
          "name": "operator",
          "type": "address"
        },
        {
          "indexed": false,
          "internalType": "bool",
          "name": "approved",
          "type": "bool"
        }
      ],
      "name": "ApprovalForAll",
      "type": "event"
    },
    {
      "anonymous": false,
      "inputs": [
        {
          "indexed": true,
          "internalType": "address",
          "name": "from",
          "type": "address"
        },
        {
          "indexed": true,
          "internalType": "address",
          "name": "to",
          "type": "address"
        },
        {
          "indexed": true,
          "internalType": "uint256",
          "name": "tokenId",
          "type": "uint256"
        }
      ],
      "name": "Transfer",
      "type": "event"
    },
    {
      "inputs": [],
      "name": "ARTIST_SHARE",
      "outputs": [
        {
          "internalType": "uint256",
          "name": "",
          "type": "uint256"
        }
      ],
      "stateMutability": "view",
      "type": "function",
      "constant": true
    },
    {
      "inputs": [
        {
          "internalType": "address",
          "name": "to",
          "type": "address"
        },
        {
          "internalType": "uint256",
          "name": "tokenId",
          "type": "uint256"
        }
      ],
      "name": "approve",
      "outputs": [],
      "stateMutability": "nonpayable",
      "type": "function"
    },
    {
      "inputs": [
        {
          "internalType": "address",
          "name": "owner",
          "type": "address"
        }
      ],
      "name": "balanceOf",
      "outputs": [
        {
          "internalType": "uint256",
          "name": "",
          "type": "uint256"
        }
      ],
      "stateMutability": "view",
      "type": "function",
      "constant": true
    },
    {
      "inputs": [
        {
          "internalType": "uint256",
          "name": "tokenId",
          "type": "uint256"
        }
      ],
      "name": "getApproved",
      "outputs": [
        {
          "internalType": "address",
          "name": "",
          "type": "address"
        }
      ],
      "stateMutability": "view",
      "type": "function",
      "constant": true
    },
    {
      "inputs": [
        {
          "internalType": "address",
          "name": "owner",
          "type": "address"
        },
        {
          "internalType": "address",
          "name": "operator",
          "type": "address"
        }
      ],
      "name": "isApprovedForAll",
      "outputs": [
        {
          "internalType": "bool",
          "name": "",
          "type": "bool"
        }
      ],
      "stateMutability": "view",
      "type": "function",
      "constant": true
    },
    {
      "inputs": [],
      "name": "name",
      "outputs": [
        {
          "internalType": "string",
          "name": "",
          "type": "string"
        }
      ],
      "stateMutability": "view",
      "type": "function",
      "constant": true
    },
    {
      "inputs": [
        {
          "internalType": "uint256",
          "name": "tokenId",
          "type": "uint256"
        }
      ],
      "name": "ownerOf",
      "outputs": [
        {
          "internalType": "address",
          "name": "",
          "type": "address"
        }
      ],
      "stateMutability": "view",
      "type": "function",
      "constant": true
    },
    {
      "inputs": [
        {
          "internalType": "address",
          "name": "from",
          "type": "address"
        },
        {
          "internalType": "address",
          "name": "to",
          "type": "address"
        },
        {
          "internalType": "uint256",
          "name": "tokenId",
          "type": "uint256"
        }
      ],
      "name": "safeTransferFrom",
      "outputs": [],
      "stateMutability": "nonpayable",
      "type": "function"
    },
    {
      "inputs": [
        {
          "internalType": "address",
          "name": "from",
          "type": "address"
        },
        {
          "internalType": "address",
          "name": "to",
          "type": "address"
        },
        {
          "internalType": "uint256",
          "name": "tokenId",
          "type": "uint256"
        },
        {
          "internalType": "bytes",
          "name": "data",
          "type": "bytes"
        }
      ],
      "name": "safeTransferFrom",
      "outputs": [],
      "stateMutability": "nonpayable",
      "type": "function"
    },
    {
      "inputs": [
        {
          "internalType": "address",
          "name": "operator",
          "type": "address"
        },
        {
          "internalType": "bool",
          "name": "approved",
          "type": "bool"
        }
      ],
      "name": "setApprovalForAll",
      "outputs": [],
      "stateMutability": "nonpayable",
      "type": "function"
    },
    {
      "inputs": [
        {
          "internalType": "bytes4",
          "name": "interfaceId",
          "type": "bytes4"
        }
      ],
      "name": "supportsInterface",
      "outputs": [
        {
          "internalType": "bool",
          "name": "",
          "type": "bool"
        }
      ],
      "stateMutability": "view",
      "type": "function",
      "constant": true
    },
    {
      "inputs": [],
      "name": "symbol",
      "outputs": [
        {
          "internalType": "string",
          "name": "",
          "type": "string"
        }
      ],
      "stateMutability": "view",
      "type": "function",
      "constant": true
    },
    {
      "inputs": [
        {
          "internalType": "uint256",
          "name": "tokenId",
          "type": "uint256"
        }
      ],
      "name": "tokenURI",
      "outputs": [
        {
          "internalType": "string",
          "name": "",
          "type": "string"
        }
      ],
      "stateMutability": "view",
      "type": "function",
      "constant": true
    },
    {
      "inputs": [
        {
          "internalType": "address",
          "name": "from",
          "type": "address"
        },
        {
          "internalType": "address",
          "name": "to",
          "type": "address"
        },
        {
          "internalType": "uint256",
          "name": "tokenId",
          "type": "uint256"
        }
      ],
      "name": "transferFrom",
      "outputs": [],
      "stateMutability": "nonpayable",
      "type": "function"
    },
    {
      "inputs": [
        {
          "internalType": "string",
          "name": "tokenURI",
          "type": "string"
        }
      ],
      "name": "mintNFT",
      "outputs": [
        {
          "internalType": "uint256",
          "name": "",
          "type": "uint256"
        }
      ],
      "stateMutability": "nonpayable",
      "type": "function"
    },
    {
      "inputs": [
        {
          "internalType": "uint256",
          "name": "tokenId",
          "type": "uint256"
        },
        {
          "internalType": "uint256",
          "name": "price",
          "type": "uint256"
        }
      ],
      "name": "sellNFT",
      "outputs": [],
      "stateMutability": "nonpayable",
      "type": "function"
    },
    {
      "inputs": [
        {
          "internalType": "uint256",
          "name": "tokenId",
          "type": "uint256"
        },
        {
          "internalType": "uint256",
          "name": "newPrice",
          "type": "uint256"
        }
      ],
      "name": "updateNFTPrice",
      "outputs": [],
      "stateMutability": "nonpayable",
      "type": "function"
    },
    {
      "inputs": [
        {
          "internalType": "uint256",
          "name": "tokenId",
          "type": "uint256"
        }
      ],
      "name": "buyNFT",
      "outputs": [],
      "stateMutability": "payable",
      "type": "function",
      "payable": true
    },
    {
      "inputs": [],
      "name": "getNFTs",
      "outputs": [
        {
          "components": [
            {
              "internalType": "uint256",
              "name": "tokenId",
              "type": "uint256"
            },
            {
              "internalType": "address",
              "name": "artist",
              "type": "address"
            },
            {
              "internalType": "bool",
              "name": "isOnSale",
              "type": "bool"
            },
            {
              "internalType": "uint256",
              "name": "price",
              "type": "uint256"
            }
          ],
          "internalType": "struct AudioNFT.NFT[]",
          "name": "",
          "type": "tuple[]"
        },
        {
          "internalType": "string[]",
          "name": "",
          "type": "string[]"
        }
      ],
      "stateMutability": "view",
      "type": "function",
      "constant": true
    },
    {
      "inputs": [],
      "name": "getOwnedNFTs",
      "outputs": [
        {
          "components": [
            {
              "internalType": "uint256",
              "name": "tokenId",
              "type": "uint256"
            },
            {
              "internalType": "address",
              "name": "artist",
              "type": "address"
            },
            {
              "internalType": "bool",
              "name": "isOnSale",
              "type": "bool"
            },
            {
              "internalType": "uint256",
              "name": "price",
              "type": "uint256"
            }
          ],
          "internalType": "struct AudioNFT.NFT[]",
          "name": "",
          "type": "tuple[]"
        },
        {
          "internalType": "string[]",
          "name": "",
          "type": "string[]"
        }
      ],
      "stateMutability": "view",
      "type": "function",
      "constant": true
    },
    {
      "inputs": [],
      "name": "getOnSaleNFTs",
      "outputs": [
        {
          "components": [
            {
              "internalType": "uint256",
              "name": "tokenId",
              "type": "uint256"
            },
            {
              "internalType": "address",
              "name": "artist",
              "type": "address"
            },
            {
              "internalType": "bool",
              "name": "isOnSale",
              "type": "bool"
            },
            {
              "internalType": "uint256",
              "name": "price",
              "type": "uint256"
            }
          ],
          "internalType": "struct AudioNFT.NFT[]",
          "name": "",
          "type": "tuple[]"
        },
        {
          "internalType": "string[]",
          "name": "",
          "type": "string[]"
        }
      ],
      "stateMutability": "view",
      "type": "function",
      "constant": true
    }
  ],
  "bytecode": "0x60806040523480156200001157600080fd5b506040518060400160405280600881526020017f417564696f4e46540000000000000000000000000000000000000000000000008152506040518060400160405280600881526020017f417564696f4e465400000000000000000000000000000000000000000000000081525081600090816200008f91906200032c565b508060019081620000a191906200032c565b5050506000600a8190555062000413565b600081519050919050565b7f4e487b7100000000000000000000000000000000000000000000000000000000600052604160045260246000fd5b7f4e487b7100000000000000000000000000000000000000000000000000000000600052602260045260246000fd5b600060028204905060018216806200013457607f821691505b6020821081036200014a5762000149620000ec565b5b50919050565b60008190508160005260206000209050919050565b60006020601f8301049050919050565b600082821b905092915050565b600060088302620001b47fffffffffffffffffffffffffffffffffffffffffffffffffffffffffffffffff8262000175565b620001c0868362000175565b95508019841693508086168417925050509392505050565b6000819050919050565b6000819050919050565b60006200020d620002076200020184620001d8565b620001e2565b620001d8565b9050919050565b6000819050919050565b6200022983620001ec565b62000241620002388262000214565b84845462000182565b825550505050565b600090565b6200025862000249565b620002658184846200021e565b505050565b5b818110156200028d57620002816000826200024e565b6001810190506200026b565b5050565b601f821115620002dc57620002a68162000150565b620002b18462000165565b81016020851015620002c1578190505b620002d9620002d08562000165565b8301826200026a565b50505b505050565b600082821c905092915050565b60006200030160001984600802620002e1565b1980831691505092915050565b60006200031c8383620002ee565b9150826002028217905092915050565b6200033782620000b2565b67ffffffffffffffff811115620003535762000352620000bd565b5b6200035f82546200011b565b6200036c82828562000291565b600060209050601f831160018114620003a457600084156200038f578287015190505b6200039b85826200030e565b8655506200040b565b601f198416620003b48662000150565b60005b82811015620003de57848901518255600182019150602085019450602081019050620003b7565b86831015620003fe5784890151620003fa601f891682620002ee565b8355505b6001600288020188555050505b505050505050565b613ef180620004236000396000f3fe60806040526004361061012a5760003560e01c80636352211e116100ab578063a22cb4651161006f578063a22cb465146103e6578063b88d4fde1461040f578063c87b56dd14610438578063e406a6b914610475578063e985e9c5146104a0578063fb37e883146104dd5761012a565b80636352211e146102ec57806370a082311461032957806391a48a1e1461036657806395d89b411461038f5780639eb1b1fc146103ba5761012a565b806323b872dd116100f257806323b872dd1461022957806342842e0e146102525780634ac0123d1461027b5780634c0eb7d9146102a457806351ed8288146102d05761012a565b806301ffc9a71461012f57806306fdde031461016c578063081812fc14610197578063095ea7b3146101d4578063227212f2146101fd575b600080fd5b34801561013b57600080fd5b506101566004803603810190610151919061296c565b61051a565b60405161016391906129b4565b60405180910390f35b34801561017857600080fd5b506101816105fc565b60405161018e9190612a5f565b60405180910390f35b3480156101a357600080fd5b506101be60048036038101906101b99190612ab7565b61068e565b6040516101cb9190612b25565b60405180910390f35b3480156101e057600080fd5b506101fb60048036038101906101f69190612b6c565b6106d4565b005b34801561020957600080fd5b506102126107eb565b604051610220929190612de9565b60405180910390f35b34801561023557600080fd5b50610250600480360381019061024b9190612e20565b6109da565b005b34801561025e57600080fd5b5061027960048036038101906102749190612e20565b610a3a565b005b34801561028757600080fd5b506102a2600480360381019061029d9190612e73565b610a5a565b005b3480156102b057600080fd5b506102b9610b70565b6040516102c7929190612de9565b60405180910390f35b6102ea60048036038101906102e59190612ab7565b610db9565b005b3480156102f857600080fd5b50610313600480360381019061030e9190612ab7565b611053565b6040516103209190612b25565b60405180910390f35b34801561033557600080fd5b50610350600480360381019061034b9190612eb3565b6110d9565b60405161035d9190612eef565b60405180910390f35b34801561037257600080fd5b5061038d60048036038101906103889190612e73565b611190565b005b34801561039b57600080fd5b506103a461135d565b6040516103b19190612a5f565b60405180910390f35b3480156103c657600080fd5b506103cf6113ef565b6040516103dd929190612de9565b60405180910390f35b3480156103f257600080fd5b5061040d60048036038101906104089190612f36565b611603565b005b34801561041b57600080fd5b50610436600480360381019061043191906130ab565b611619565b005b34801561044457600080fd5b5061045f600480360381019061045a9190612ab7565b61167b565b60405161046c9190612a5f565b60405180910390f35b34801561048157600080fd5b5061048a61178d565b6040516104979190612eef565b60405180910390f35b3480156104ac57600080fd5b506104c760048036038101906104c2919061312e565b611792565b6040516104d491906129b4565b60405180910390f35b3480156104e957600080fd5b5061050460048036038101906104ff919061320f565b611826565b6040516105119190612eef565b60405180910390f35b60007f80ac58cd000000000000000000000000000000000000000000000000000000007bffffffffffffffffffffffffffffffffffffffffffffffffffffffff1916827bffffffffffffffffffffffffffffffffffffffffffffffffffffffff191614806105e557507f5b5e139f000000000000000000000000000000000000000000000000000000007bffffffffffffffffffffffffffffffffffffffffffffffffffffffff1916827bffffffffffffffffffffffffffffffffffffffffffffffffffffffff1916145b806105f557506105f482611952565b5b9050919050565b60606000805461060b90613287565b80601f016020809104026020016040519081016040528092919081815260200182805461063790613287565b80156106845780601f1061065957610100808354040283529160200191610684565b820191906000526020600020905b81548152906001019060200180831161066757829003601f168201915b5050505050905090565b6000610699826119bc565b6004600083815260200190815260200160002060009054906101000a900473ffffffffffffffffffffffffffffffffffffffff169050919050565b60006106df82611053565b90508073ffffffffffffffffffffffffffffffffffffffff168373ffffffffffffffffffffffffffffffffffffffff160361074f576040517f08c379a00000000000000000000000000000000000000000000000000000000081526004016107469061332a565b60405180910390fd5b8073ffffffffffffffffffffffffffffffffffffffff1661076e611a07565b73ffffffffffffffffffffffffffffffffffffffff16148061079d575061079c81610797611a07565b611792565b5b6107dc576040517f08c379a00000000000000000000000000000000000000000000000000000000081526004016107d3906133bc565b60405180910390fd5b6107e68383611a0f565b505050565b6060806000600980549050905060008167ffffffffffffffff81111561081457610813612f80565b5b60405190808252806020026020018201604052801561084d57816020015b61083a6128c0565b8152602001906001900390816108325790505b50905060008267ffffffffffffffff81111561086c5761086b612f80565b5b60405190808252806020026020018201604052801561089f57816020015b606081526020019060019003908161088a5790505b50905060005b838110156109cc576000600982815481106108c3576108c26133dc565b5b9060005260206000200154905060086000828152602001908152602001600020604051806080016040529081600082015481526020016001820160009054906101000a900473ffffffffffffffffffffffffffffffffffffffff1673ffffffffffffffffffffffffffffffffffffffff1673ffffffffffffffffffffffffffffffffffffffff1681526020016001820160149054906101000a900460ff16151515158152602001600282015481525050848381518110610986576109856133dc565b5b602002602001018190525061099a8161167b565b8383815181106109ad576109ac6133dc565b5b60200260200101819052505080806109c49061343a565b9150506108a5565b508181945094505050509091565b6109eb6109e5611a07565b82611ac8565b610a2a576040517f08c379a0000000000000000000000000000000000000000000000000000000008152600401610a21906134f4565b60405180910390fd5b610a35838383611b5d565b505050565b610a5583838360405180602001604052806000815250611619565b505050565b81600980549050811115610aa557806040517f5be3786c000000000000000000000000000000000000000000000000000000008152600401610a9c9190612eef565b60405180910390fd5b8160008111610ae0576040517fbad19a9000000000000000000000000000000000000000000000000000000000815260040160405180910390fd5b833373ffffffffffffffffffffffffffffffffffffffff16610b0182611053565b73ffffffffffffffffffffffffffffffffffffffff1614610b4e576040517fb087064f00000000000000000000000000000000000000000000000000000000815260040160405180910390fd5b8360086000878152602001908152602001600020600201819055505050505050565b606080600060098054905090506000610b88336110d9565b905060008167ffffffffffffffff811115610ba657610ba5612f80565b5b604051908082528060200260200182016040528015610bdf57816020015b610bcc6128c0565b815260200190600190039081610bc45790505b50905060008267ffffffffffffffff811115610bfe57610bfd612f80565b5b604051908082528060200260200182016040528015610c3157816020015b6060815260200190600190039081610c1c5790505b5090506000805b85811015610da957600060098281548110610c5657610c556133dc565b5b906000526020600020015490503373ffffffffffffffffffffffffffffffffffffffff16610c8382611053565b73ffffffffffffffffffffffffffffffffffffffff1603610d955760086000828152602001908152602001600020604051806080016040529081600082015481526020016001820160009054906101000a900473ffffffffffffffffffffffffffffffffffffffff1673ffffffffffffffffffffffffffffffffffffffff1673ffffffffffffffffffffffffffffffffffffffff1681526020016001820160149054906101000a900460ff16151515158152602001600282015481525050858481518110610d5457610d536133dc565b5b6020026020010181905250610d688161167b565b848481518110610d7b57610d7a6133dc565b5b60200260200101819052508280610d919061343a565b9350505b508080610da19061343a565b915050610c38565b5082829650965050505050509091565b80600980549050811115610e0457806040517f5be3786c000000000000000000000000000000000000000000000000000000008152600401610dfb9190612eef565b60405180910390fd5b600860008381526020019081526020016000206002015434808214610e625781816040517fbc03bccd000000000000000000000000000000000000000000000000000000008152600401610e59929190613514565b60405180910390fd5b6008600085815260200190815260200160002060010160149054906101000a900460ff16600180151582151514610ed057816040517f0829e964000000000000000000000000000000000000000000000000000000008152600401610ec791906129b4565b60405180910390fd5b60006008600088815260200190815260200160002060010160009054906101000a900473ffffffffffffffffffffffffffffffffffffffff1690506000610f1688611053565b905060003390506000600860008b81526020019081526020016000206002015490506000600a606483610f49919061356c565b610f53919061359d565b905060008183610f6391906135df565b90506000600860008e815260200190815260200160002060010160146101000a81548160ff021916908315150217905550600a6000815480929190610fa790613613565b9190505550610fb785858e611b5d565b8473ffffffffffffffffffffffffffffffffffffffff166108fc829081150290604051600060405180830381858888f19350505050158015610ffd573d6000803e3d6000fd5b508573ffffffffffffffffffffffffffffffffffffffff166108fc839081150290604051600060405180830381858888f19350505050158015611044573d6000803e3d6000fd5b50505050505050505050505050565b60008061105f83611e56565b9050600073ffffffffffffffffffffffffffffffffffffffff168173ffffffffffffffffffffffffffffffffffffffff16036110d0576040517f08c379a00000000000000000000000000000000000000000000000000000000081526004016110c790613688565b60405180910390fd5b80915050919050565b60008073ffffffffffffffffffffffffffffffffffffffff168273ffffffffffffffffffffffffffffffffffffffff1603611149576040517f08c379a00000000000000000000000000000000000000000000000000000000081526004016111409061371a565b60405180910390fd5b600360008373ffffffffffffffffffffffffffffffffffffffff1673ffffffffffffffffffffffffffffffffffffffff168152602001908152602001600020549050919050565b816009805490508111156111db57806040517f5be3786c0000000000000000000000000000000000000000000000000000000081526004016111d29190612eef565b60405180910390fd5b823373ffffffffffffffffffffffffffffffffffffffff166111fc82611053565b73ffffffffffffffffffffffffffffffffffffffff1614611249576040517fb087064f00000000000000000000000000000000000000000000000000000000815260040160405180910390fd5b8260008111611284576040517fbad19a9000000000000000000000000000000000000000000000000000000000815260040160405180910390fd5b6008600086815260200190815260200160002060010160149054906101000a900460ff166000801515821515146112f257816040517f0829e9640000000000000000000000000000000000000000000000000000000081526004016112e991906129b4565b60405180910390fd5b60016008600089815260200190815260200160002060010160146101000a81548160ff021916908315150217905550600a60008154809291906113349061343a565b919050555085600860008981526020019081526020016000206002018190555050505050505050565b60606001805461136c90613287565b80601f016020809104026020016040519081016040528092919081815260200182805461139890613287565b80156113e55780601f106113ba576101008083540402835291602001916113e5565b820191906000526020600020905b8154815290600101906020018083116113c857829003601f168201915b5050505050905090565b606080600060098054905090506000600a5467ffffffffffffffff81111561141a57611419612f80565b5b60405190808252806020026020018201604052801561145357816020015b6114406128c0565b8152602001906001900390816114385790505b5090506000600a5467ffffffffffffffff81111561147457611473612f80565b5b6040519080825280602002602001820160405280156114a757816020015b60608152602001906001900390816114925790505b5090506000805b848110156115f4576000600982815481106114cc576114cb6133dc565b5b90600052602060002001549050600060086000838152602001908152602001600020604051806080016040529081600082015481526020016001820160009054906101000a900473ffffffffffffffffffffffffffffffffffffffff1673ffffffffffffffffffffffffffffffffffffffff1673ffffffffffffffffffffffffffffffffffffffff1681526020016001820160149054906101000a900460ff1615151515815260200160028201548152505090508060400151156115df578086858151811061159e5761159d6133dc565b5b60200260200101819052506115b28261167b565b8585815181106115c5576115c46133dc565b5b602002602001018190525083806115db9061343a565b9450505b505080806115ec9061343a565b9150506114ae565b50828295509550505050509091565b61161561160e611a07565b8383611e93565b5050565b61162a611624611a07565b83611ac8565b611669576040517f08c379a0000000000000000000000000000000000000000000000000000000008152600401611660906134f4565b60405180910390fd5b61167584848484611fff565b50505050565b6060611686826119bc565b60006006600084815260200190815260200160002080546116a690613287565b80601f01602080910402602001604051908101604052809291908181526020018280546116d290613287565b801561171f5780601f106116f45761010080835404028352916020019161171f565b820191906000526020600020905b81548152906001019060200180831161170257829003601f168201915b50505050509050600061173061205b565b90506000815103611745578192505050611788565b60008251111561177a578082604051602001611762929190613776565b60405160208183030381529060405292505050611788565b61178384612072565b925050505b919050565b600a81565b6000600560008473ffffffffffffffffffffffffffffffffffffffff1673ffffffffffffffffffffffffffffffffffffffff16815260200190815260200160002060008373ffffffffffffffffffffffffffffffffffffffff1673ffffffffffffffffffffffffffffffffffffffff16815260200190815260200160002060009054906101000a900460ff16905092915050565b600061183260076120da565b600061183e60076120f0565b905061184a33826120fe565b611854818461231b565b600981908060018154018082558091505060019003906000526020600020016000909190919091505560405180608001604052808281526020013373ffffffffffffffffffffffffffffffffffffffff1681526020016000151581526020016000815250600860008381526020019081526020016000206000820151816000015560208201518160010160006101000a81548173ffffffffffffffffffffffffffffffffffffffff021916908373ffffffffffffffffffffffffffffffffffffffff16021790555060408201518160010160146101000a81548160ff0219169083151502179055506060820151816002015590505080915050919050565b60007f01ffc9a7000000000000000000000000000000000000000000000000000000007bffffffffffffffffffffffffffffffffffffffffffffffffffffffff1916827bffffffffffffffffffffffffffffffffffffffffffffffffffffffff1916149050919050565b6119c581612388565b611a04576040517f08c379a00000000000000000000000000000000000000000000000000000000081526004016119fb90613688565b60405180910390fd5b50565b600033905090565b816004600083815260200190815260200160002060006101000a81548173ffffffffffffffffffffffffffffffffffffffff021916908373ffffffffffffffffffffffffffffffffffffffff160217905550808273ffffffffffffffffffffffffffffffffffffffff16611a8283611053565b73ffffffffffffffffffffffffffffffffffffffff167f8c5be1e5ebec7d5bd14f71427d1e84f3dd0314c0f7b2291e5b200ac8c7c3b92560405160405180910390a45050565b600080611ad483611053565b90508073ffffffffffffffffffffffffffffffffffffffff168473ffffffffffffffffffffffffffffffffffffffff161480611b165750611b158185611792565b5b80611b5457508373ffffffffffffffffffffffffffffffffffffffff16611b3c8461068e565b73ffffffffffffffffffffffffffffffffffffffff16145b91505092915050565b8273ffffffffffffffffffffffffffffffffffffffff16611b7d82611053565b73ffffffffffffffffffffffffffffffffffffffff1614611bd3576040517f08c379a0000000000000000000000000000000000000000000000000000000008152600401611bca9061380c565b60405180910390fd5b600073ffffffffffffffffffffffffffffffffffffffff168273ffffffffffffffffffffffffffffffffffffffff1603611c42576040517f08c379a0000000000000000000000000000000000000000000000000000000008152600401611c399061389e565b60405180910390fd5b611c4f83838360016123c9565b8273ffffffffffffffffffffffffffffffffffffffff16611c6f82611053565b73ffffffffffffffffffffffffffffffffffffffff1614611cc5576040517f08c379a0000000000000000000000000000000000000000000000000000000008152600401611cbc9061380c565b60405180910390fd5b6004600082815260200190815260200160002060006101000a81549073ffffffffffffffffffffffffffffffffffffffff02191690556001600360008573ffffffffffffffffffffffffffffffffffffffff1673ffffffffffffffffffffffffffffffffffffffff168152602001908152602001600020600082825403925050819055506001600360008473ffffffffffffffffffffffffffffffffffffffff1673ffffffffffffffffffffffffffffffffffffffff16815260200190815260200160002060008282540192505081905550816002600083815260200190815260200160002060006101000a81548173ffffffffffffffffffffffffffffffffffffffff021916908373ffffffffffffffffffffffffffffffffffffffff160217905550808273ffffffffffffffffffffffffffffffffffffffff168473ffffffffffffffffffffffffffffffffffffffff167fddf252ad1be2c89b69c2b068fc378daa952ba7f163c4a11628f55a4df523b3ef60405160405180910390a4611e5183838360016124ef565b505050565b60006002600083815260200190815260200160002060009054906101000a900473ffffffffffffffffffffffffffffffffffffffff169050919050565b8173ffffffffffffffffffffffffffffffffffffffff168373ffffffffffffffffffffffffffffffffffffffff1603611f01576040517f08c379a0000000000000000000000000000000000000000000000000000000008152600401611ef89061390a565b60405180910390fd5b80600560008573ffffffffffffffffffffffffffffffffffffffff1673ffffffffffffffffffffffffffffffffffffffff16815260200190815260200160002060008473ffffffffffffffffffffffffffffffffffffffff1673ffffffffffffffffffffffffffffffffffffffff16815260200190815260200160002060006101000a81548160ff0219169083151502179055508173ffffffffffffffffffffffffffffffffffffffff168373ffffffffffffffffffffffffffffffffffffffff167f17307eab39ab6107e8899845ad3d59bd9653f200f220920489ca2b5937696c3183604051611ff291906129b4565b60405180910390a3505050565b61200a848484611b5d565b612016848484846124f5565b612055576040517f08c379a000000000000000000000000000000000000000000000000000000000815260040161204c9061399c565b60405180910390fd5b50505050565b606060405180602001604052806000815250905090565b606061207d826119bc565b600061208761205b565b905060008151116120a757604051806020016040528060008152506120d2565b806120b18461267c565b6040516020016120c2929190613776565b6040516020818303038152906040525b915050919050565b6001816000016000828254019250508190555050565b600081600001549050919050565b600073ffffffffffffffffffffffffffffffffffffffff168273ffffffffffffffffffffffffffffffffffffffff160361216d576040517f08c379a000000000000000000000000000000000000000000000000000000000815260040161216490613a08565b60405180910390fd5b61217681612388565b156121b6576040517f08c379a00000000000000000000000000000000000000000000000000000000081526004016121ad90613a74565b60405180910390fd5b6121c46000838360016123c9565b6121cd81612388565b1561220d576040517f08c379a000000000000000000000000000000000000000000000000000000000815260040161220490613a74565b60405180910390fd5b6001600360008473ffffffffffffffffffffffffffffffffffffffff1673ffffffffffffffffffffffffffffffffffffffff16815260200190815260200160002060008282540192505081905550816002600083815260200190815260200160002060006101000a81548173ffffffffffffffffffffffffffffffffffffffff021916908373ffffffffffffffffffffffffffffffffffffffff160217905550808273ffffffffffffffffffffffffffffffffffffffff16600073ffffffffffffffffffffffffffffffffffffffff167fddf252ad1be2c89b69c2b068fc378daa952ba7f163c4a11628f55a4df523b3ef60405160405180910390a46123176000838360016124ef565b5050565b61232482612388565b612363576040517f08c379a000000000000000000000000000000000000000000000000000000000815260040161235a90613b06565b60405180910390fd5b806006600084815260200190815260200160002090816123839190613cd2565b505050565b60008073ffffffffffffffffffffffffffffffffffffffff166123aa83611e56565b73ffffffffffffffffffffffffffffffffffffffff1614159050919050565b60018111156124e957600073ffffffffffffffffffffffffffffffffffffffff168473ffffffffffffffffffffffffffffffffffffffff161461245d5780600360008673ffffffffffffffffffffffffffffffffffffffff1673ffffffffffffffffffffffffffffffffffffffff168152602001908152602001600020600082825461245591906135df565b925050819055505b600073ffffffffffffffffffffffffffffffffffffffff168373ffffffffffffffffffffffffffffffffffffffff16146124e85780600360008573ffffffffffffffffffffffffffffffffffffffff1673ffffffffffffffffffffffffffffffffffffffff16815260200190815260200160002060008282546124e09190613da4565b925050819055505b5b50505050565b50505050565b60006125168473ffffffffffffffffffffffffffffffffffffffff1661274a565b1561266f578373ffffffffffffffffffffffffffffffffffffffff1663150b7a0261253f611a07565b8786866040518563ffffffff1660e01b81526004016125619493929190613e2d565b6020604051808303816000875af192505050801561259d57506040513d601f19601f8201168201806040525081019061259a9190613e8e565b60015b61261f573d80600081146125cd576040519150601f19603f3d011682016040523d82523d6000602084013e6125d2565b606091505b506000815103612617576040517f08c379a000000000000000000000000000000000000000000000000000000000815260040161260e9061399c565b60405180910390fd5b805181602001fd5b63150b7a0260e01b7bffffffffffffffffffffffffffffffffffffffffffffffffffffffff1916817bffffffffffffffffffffffffffffffffffffffffffffffffffffffff191614915050612674565b600190505b949350505050565b60606000600161268b8461276d565b01905060008167ffffffffffffffff8111156126aa576126a9612f80565b5b6040519080825280601f01601f1916602001820160405280156126dc5781602001600182028036833780820191505090505b509050600082602001820190505b60011561273f578080600190039150507f3031323334353637383961626364656600000000000000000000000000000000600a86061a8153600a85816127335761273261353d565b5b049450600085036126ea575b819350505050919050565b6000808273ffffffffffffffffffffffffffffffffffffffff163b119050919050565b600080600090507a184f03e93ff9f4daa797ed6e38ed64bf6a1f01000000000000000083106127cb577a184f03e93ff9f4daa797ed6e38ed64bf6a1f01000000000000000083816127c1576127c061353d565b5b0492506040810190505b6d04ee2d6d415b85acef81000000008310612808576d04ee2d6d415b85acef810000000083816127fe576127fd61353d565b5b0492506020810190505b662386f26fc10000831061283757662386f26fc10000838161282d5761282c61353d565b5b0492506010810190505b6305f5e1008310612860576305f5e10083816128565761285561353d565b5b0492506008810190505b612710831061288557612710838161287b5761287a61353d565b5b0492506004810190505b606483106128a8576064838161289e5761289d61353d565b5b0492506002810190505b600a83106128b7576001810190505b80915050919050565b604051806080016040528060008152602001600073ffffffffffffffffffffffffffffffffffffffff168152602001600015158152602001600081525090565b6000604051905090565b600080fd5b600080fd5b60007fffffffff0000000000000000000000000000000000000000000000000000000082169050919050565b61294981612914565b811461295457600080fd5b50565b60008135905061296681612940565b92915050565b6000602082840312156129825761298161290a565b5b600061299084828501612957565b91505092915050565b60008115159050919050565b6129ae81612999565b82525050565b60006020820190506129c960008301846129a5565b92915050565b600081519050919050565b600082825260208201905092915050565b60005b83811015612a095780820151818401526020810190506129ee565b60008484015250505050565b6000601f19601f8301169050919050565b6000612a31826129cf565b612a3b81856129da565b9350612a4b8185602086016129eb565b612a5481612a15565b840191505092915050565b60006020820190508181036000830152612a798184612a26565b905092915050565b6000819050919050565b612a9481612a81565b8114612a9f57600080fd5b50565b600081359050612ab181612a8b565b92915050565b600060208284031215612acd57612acc61290a565b5b6000612adb84828501612aa2565b91505092915050565b600073ffffffffffffffffffffffffffffffffffffffff82169050919050565b6000612b0f82612ae4565b9050919050565b612b1f81612b04565b82525050565b6000602082019050612b3a6000830184612b16565b92915050565b612b4981612b04565b8114612b5457600080fd5b50565b600081359050612b6681612b40565b92915050565b60008060408385031215612b8357612b8261290a565b5b6000612b9185828601612b57565b9250506020612ba285828601612aa2565b9150509250929050565b600081519050919050565b600082825260208201905092915050565b6000819050602082019050919050565b612be181612a81565b82525050565b612bf081612b04565b82525050565b612bff81612999565b82525050565b608082016000820151612c1b6000850182612bd8565b506020820151612c2e6020850182612be7565b506040820151612c416040850182612bf6565b506060820151612c546060850182612bd8565b50505050565b6000612c668383612c05565b60808301905092915050565b6000602082019050919050565b6000612c8a82612bac565b612c948185612bb7565b9350612c9f83612bc8565b8060005b83811015612cd0578151612cb78882612c5a565b9750612cc283612c72565b925050600181019050612ca3565b5085935050505092915050565b600081519050919050565b600082825260208201905092915050565b6000819050602082019050919050565b600082825260208201905092915050565b6000612d25826129cf565b612d2f8185612d09565b9350612d3f8185602086016129eb565b612d4881612a15565b840191505092915050565b6000612d5f8383612d1a565b905092915050565b6000602082019050919050565b6000612d7f82612cdd565b612d898185612ce8565b935083602082028501612d9b85612cf9565b8060005b85811015612dd75784840389528151612db88582612d53565b9450612dc383612d67565b925060208a01995050600181019050612d9f565b50829750879550505050505092915050565b60006040820190508181036000830152612e038185612c7f565b90508181036020830152612e178184612d74565b90509392505050565b600080600060608486031215612e3957612e3861290a565b5b6000612e4786828701612b57565b9350506020612e5886828701612b57565b9250506040612e6986828701612aa2565b9150509250925092565b60008060408385031215612e8a57612e8961290a565b5b6000612e9885828601612aa2565b9250506020612ea985828601612aa2565b9150509250929050565b600060208284031215612ec957612ec861290a565b5b6000612ed784828501612b57565b91505092915050565b612ee981612a81565b82525050565b6000602082019050612f046000830184612ee0565b92915050565b612f1381612999565b8114612f1e57600080fd5b50565b600081359050612f3081612f0a565b92915050565b60008060408385031215612f4d57612f4c61290a565b5b6000612f5b85828601612b57565b9250506020612f6c85828601612f21565b9150509250929050565b600080fd5b600080fd5b7f4e487b7100000000000000000000000000000000000000000000000000000000600052604160045260246000fd5b612fb882612a15565b810181811067ffffffffffffffff82111715612fd757612fd6612f80565b5b80604052505050565b6000612fea612900565b9050612ff68282612faf565b919050565b600067ffffffffffffffff82111561301657613015612f80565b5b61301f82612a15565b9050602081019050919050565b82818337600083830152505050565b600061304e61304984612ffb565b612fe0565b90508281526020810184848401111561306a57613069612f7b565b5b61307584828561302c565b509392505050565b600082601f83011261309257613091612f76565b5b81356130a284826020860161303b565b91505092915050565b600080600080608085870312156130c5576130c461290a565b5b60006130d387828801612b57565b94505060206130e487828801612b57565b93505060406130f587828801612aa2565b925050606085013567ffffffffffffffff8111156131165761311561290f565b5b6131228782880161307d565b91505092959194509250565b600080604083850312156131455761314461290a565b5b600061315385828601612b57565b925050602061316485828601612b57565b9150509250929050565b600067ffffffffffffffff82111561318957613188612f80565b5b61319282612a15565b9050602081019050919050565b60006131b26131ad8461316e565b612fe0565b9050828152602081018484840111156131ce576131cd612f7b565b5b6131d984828561302c565b509392505050565b600082601f8301126131f6576131f5612f76565b5b813561320684826020860161319f565b91505092915050565b6000602082840312156132255761322461290a565b5b600082013567ffffffffffffffff8111156132435761324261290f565b5b61324f848285016131e1565b91505092915050565b7f4e487b7100000000000000000000000000000000000000000000000000000000600052602260045260246000fd5b6000600282049050600182168061329f57607f821691505b6020821081036132b2576132b1613258565b5b50919050565b7f4552433732313a20617070726f76616c20746f2063757272656e74206f776e6560008201527f7200000000000000000000000000000000000000000000000000000000000000602082015250565b60006133146021836129da565b915061331f826132b8565b604082019050919050565b6000602082019050818103600083015261334381613307565b9050919050565b7f4552433732313a20617070726f76652063616c6c6572206973206e6f7420746f60008201527f6b656e206f776e6572206f7220617070726f76656420666f7220616c6c000000602082015250565b60006133a6603d836129da565b91506133b18261334a565b604082019050919050565b600060208201905081810360008301526133d581613399565b9050919050565b7f4e487b7100000000000000000000000000000000000000000000000000000000600052603260045260246000fd5b7f4e487b7100000000000000000000000000000000000000000000000000000000600052601160045260246000fd5b600061344582612a81565b91507fffffffffffffffffffffffffffffffffffffffffffffffffffffffffffffffff82036134775761347661340b565b5b600182019050919050565b7f4552433732313a2063616c6c6572206973206e6f7420746f6b656e206f776e6560008201527f72206f7220617070726f76656400000000000000000000000000000000000000602082015250565b60006134de602d836129da565b91506134e982613482565b604082019050919050565b6000602082019050818103600083015261350d816134d1565b9050919050565b60006040820190506135296000830185612ee0565b6135366020830184612ee0565b9392505050565b7f4e487b7100000000000000000000000000000000000000000000000000000000600052601260045260246000fd5b600061357782612a81565b915061358283612a81565b9250826135925761359161353d565b5b828204905092915050565b60006135a882612a81565b91506135b383612a81565b92508282026135c181612a81565b915082820484148315176135d8576135d761340b565b5b5092915050565b60006135ea82612a81565b91506135f583612a81565b925082820390508181111561360d5761360c61340b565b5b92915050565b600061361e82612a81565b9150600082036136315761363061340b565b5b600182039050919050565b7f4552433732313a20696e76616c696420746f6b656e2049440000000000000000600082015250565b60006136726018836129da565b915061367d8261363c565b602082019050919050565b600060208201905081810360008301526136a181613665565b9050919050565b7f4552433732313a2061646472657373207a65726f206973206e6f74206120766160008201527f6c6964206f776e65720000000000000000000000000000000000000000000000602082015250565b60006137046029836129da565b915061370f826136a8565b604082019050919050565b60006020820190508181036000830152613733816136f7565b9050919050565b600081905092915050565b6000613750826129cf565b61375a818561373a565b935061376a8185602086016129eb565b80840191505092915050565b60006137828285613745565b915061378e8284613745565b91508190509392505050565b7f4552433732313a207472616e736665722066726f6d20696e636f72726563742060008201527f6f776e6572000000000000000000000000000000000000000000000000000000602082015250565b60006137f66025836129da565b91506138018261379a565b604082019050919050565b60006020820190508181036000830152613825816137e9565b9050919050565b7f4552433732313a207472616e7366657220746f20746865207a65726f2061646460008201527f7265737300000000000000000000000000000000000000000000000000000000602082015250565b60006138886024836129da565b91506138938261382c565b604082019050919050565b600060208201905081810360008301526138b78161387b565b9050919050565b7f4552433732313a20617070726f766520746f2063616c6c657200000000000000600082015250565b60006138f46019836129da565b91506138ff826138be565b602082019050919050565b60006020820190508181036000830152613923816138e7565b9050919050565b7f4552433732313a207472616e7366657220746f206e6f6e20455243373231526560008201527f63656976657220696d706c656d656e7465720000000000000000000000000000602082015250565b60006139866032836129da565b91506139918261392a565b604082019050919050565b600060208201905081810360008301526139b581613979565b9050919050565b7f4552433732313a206d696e7420746f20746865207a65726f2061646472657373600082015250565b60006139f26020836129da565b91506139fd826139bc565b602082019050919050565b60006020820190508181036000830152613a21816139e5565b9050919050565b7f4552433732313a20746f6b656e20616c7265616479206d696e74656400000000600082015250565b6000613a5e601c836129da565b9150613a6982613a28565b602082019050919050565b60006020820190508181036000830152613a8d81613a51565b9050919050565b7f45524337323155524953746f726167653a2055524920736574206f66206e6f6e60008201527f6578697374656e7420746f6b656e000000000000000000000000000000000000602082015250565b6000613af0602e836129da565b9150613afb82613a94565b604082019050919050565b60006020820190508181036000830152613b1f81613ae3565b9050919050565b60008190508160005260206000209050919050565b60006020601f8301049050919050565b600082821b905092915050565b600060088302613b887fffffffffffffffffffffffffffffffffffffffffffffffffffffffffffffffff82613b4b565b613b928683613b4b565b95508019841693508086168417925050509392505050565b6000819050919050565b6000613bcf613bca613bc584612a81565b613baa565b612a81565b9050919050565b6000819050919050565b613be983613bb4565b613bfd613bf582613bd6565b848454613b58565b825550505050565b600090565b613c12613c05565b613c1d818484613be0565b505050565b5b81811015613c4157613c36600082613c0a565b600181019050613c23565b5050565b601f821115613c8657613c5781613b26565b613c6084613b3b565b81016020851015613c6f578190505b613c83613c7b85613b3b565b830182613c22565b50505b505050565b600082821c905092915050565b6000613ca960001984600802613c8b565b1980831691505092915050565b6000613cc28383613c98565b9150826002028217905092915050565b613cdb826129cf565b67ffffffffffffffff811115613cf457613cf3612f80565b5b613cfe8254613287565b613d09828285613c45565b600060209050601f831160018114613d3c5760008415613d2a578287015190505b613d348582613cb6565b865550613d9c565b601f198416613d4a86613b26565b60005b82811015613d7257848901518255600182019150602085019450602081019050613d4d565b86831015613d8f5784890151613d8b601f891682613c98565b8355505b6001600288020188555050505b505050505050565b6000613daf82612a81565b9150613dba83612a81565b9250828201905080821115613dd257613dd161340b565b5b92915050565b600081519050919050565b600082825260208201905092915050565b6000613dff82613dd8565b613e098185613de3565b9350613e198185602086016129eb565b613e2281612a15565b840191505092915050565b6000608082019050613e426000830187612b16565b613e4f6020830186612b16565b613e5c6040830185612ee0565b8181036060830152613e6e8184613df4565b905095945050505050565b600081519050613e8881612940565b92915050565b600060208284031215613ea457613ea361290a565b5b6000613eb284828501613e79565b9150509291505056fea26469706673582212201641c07cddd5a2adf394cc133004f77d4c3cef138a7283d2d8ba1fede97df2a964736f6c63430008110033",
  "immutableReferences": {},
  "source": "// SPDX-License-Identifier: MIT\r\npragma solidity >=0.8.7 <0.9.0;\r\n\r\nimport \"@openzeppelin/contracts/token/ERC721/extensions/ERC721URIStorage.sol\";\r\nimport \"@openzeppelin/contracts/utils/Counters.sol\";\r\n\r\n/** An invalid price was set. A positive price (> 0) is required.\r\n */\r\nerror PriceCannotBeNegative();\r\n\r\n/** The function can be called only by the owner of the token.\r\n */\r\nerror CanBeCalledOnlyByOwner();\r\n\r\n/** The function cannot be called by the owner of the token.\r\n */\r\nerror CannotBeCalledByOwner();\r\n\r\n/** Cannot place on sale an NFT that is already listed on the market.\r\n * @param tokenId ID of the NFT\r\n */\r\nerror AlreadyOnSale(uint256 tokenId);\r\n\r\n/** Cannot but an NFT without paying a value equal to the listing price.\r\n * @param askingPrice Price of the NFT\r\n * @param txValue Value of the transaction\r\n */\r\nerror PriceNotMet(uint256 askingPrice, uint256 txValue);\r\n\r\n/** Invalid token ID.\r\n * @param tokenId Token ID\r\n */\r\nerror TokenIdInvalid(uint256 tokenId);\r\n\r\n/** Invalid selling status.\r\n * @param isOnSale Token selling status\r\n */\r\nerror OnSaleInvalid(bool isOnSale);\r\n\r\ncontract AudioNFT is ERC721URIStorage {\r\n    struct NFT {\r\n        uint256 tokenId;\r\n        address artist;\r\n        bool isOnSale;\r\n        uint256 price;\r\n    }\r\n\r\n    /**\r\n     * @notice Modifier for verifying the price cannot be 0 or negative\r\n     * @param price Price of the NFT\r\n     */\r\n    modifier notNegativePrice(uint256 price) {\r\n        if (price <= 0) revert PriceCannotBeNegative();\r\n\r\n        _;\r\n    }\r\n\r\n    /**\r\n     * @notice Modifier for verifying the caller of the function is the owner of the NFT.\r\n     * @param tokenId ID of the NFT\r\n     */\r\n    modifier onlyOwner(uint256 tokenId) {\r\n        if (ERC721.ownerOf(tokenId) != msg.sender)\r\n            revert CanBeCalledOnlyByOwner();\r\n\r\n        _;\r\n    }\r\n\r\n    /**\r\n     * @notice Modifier for verifying the caller of the function is not the owner of the NFT.\r\n     * @param tokenId ID of the NFT\r\n     */\r\n    modifier isNotOwner(uint256 tokenId) {\r\n        if (ERC721.ownerOf(tokenId) == msg.sender)\r\n            revert CannotBeCalledByOwner();\r\n\r\n        _;\r\n    }\r\n\r\n    /**\r\n     * @notice Modifier for verifying the transaction value is equal to the price of the NFT.\r\n     * @param askingPrice Price of the NFT\r\n     * @param txValue Value of the transaction\r\n     */\r\n    modifier isPriceMet(uint256 askingPrice, uint256 txValue) {\r\n        if (askingPrice != txValue) revert PriceNotMet(askingPrice, txValue);\r\n\r\n        _;\r\n    }\r\n\r\n    /**\r\n     * @notice Modifier for verifying the token ID exists.\r\n     * @param tokenId Token ID\r\n     */\r\n    modifier isTokenIdValid(uint256 tokenId) {\r\n        if (tokenId > _idNFTs.length) revert TokenIdInvalid(tokenId);\r\n\r\n        _;\r\n    }\r\n\r\n    /**\r\n     * @notice Modifier for verifying the selling status of the token is valid.\r\n     * @param actualStatus Token selling status\r\n     * @param desiredStatus Desired selling status\r\n     */\r\n    modifier isOnSaleValid(bool actualStatus, bool desiredStatus) {\r\n        if (actualStatus != desiredStatus) revert OnSaleInvalid(actualStatus);\r\n\r\n        _;\r\n    }\r\n\r\n    using Counters for Counters.Counter;\r\n\r\n    Counters.Counter private _tokenIds;\r\n    mapping(uint256 => NFT) private _idToNFT;\r\n    uint256[] private _idNFTs;\r\n    uint256 private noOnSale;\r\n\r\n    // Artists will get ARTIST_SHARE% of the NFT buying price at each resale\r\n    uint256 public constant ARTIST_SHARE = 10;\r\n\r\n    constructor() ERC721(\"AudioNFT\", \"AudioNFT\") {\r\n        noOnSale = 0;\r\n    }\r\n\r\n    /**\r\n     * @notice Method for minting a new AudioNFT that will also be put up for sale.\r\n     * @param tokenURI IPFS URI containing NFT metadata\r\n     */\r\n    function mintNFT(string memory tokenURI)\r\n        external\r\n        returns (uint256)\r\n    {\r\n        _tokenIds.increment();\r\n\r\n        uint256 newTokenId = _tokenIds.current();\r\n        _mint(msg.sender, newTokenId);\r\n        _setTokenURI(newTokenId, tokenURI);\r\n\r\n        _idNFTs.push(newTokenId);\r\n        _idToNFT[newTokenId] = NFT(newTokenId, msg.sender, false, 0);\r\n\r\n        return newTokenId;\r\n    }\r\n\r\n    function sellNFT(uint256 tokenId, uint256 price)\r\n        public\r\n        isTokenIdValid(tokenId)\r\n        onlyOwner(tokenId)\r\n        notNegativePrice(price)\r\n        isOnSaleValid(_idToNFT[tokenId].isOnSale, false)\r\n    {\r\n        _idToNFT[tokenId].isOnSale = true;\r\n        noOnSale++;\r\n        _idToNFT[tokenId].price = price;\r\n    }\r\n\r\n    function updateNFTPrice(uint256 tokenId, uint256 newPrice)\r\n        external\r\n        isTokenIdValid(tokenId)\r\n        notNegativePrice(newPrice)\r\n        onlyOwner(tokenId)\r\n    {\r\n        _idToNFT[tokenId].price = newPrice;\r\n    }\r\n\r\n    function buyNFT(uint256 tokenId)\r\n        public\r\n        payable\r\n        isTokenIdValid(tokenId)\r\n        isPriceMet(_idToNFT[tokenId].price, msg.value)\r\n        isOnSaleValid(_idToNFT[tokenId].isOnSale, true)\r\n    {\r\n        address artist = _idToNFT[tokenId].artist;\r\n        address seller = ERC721.ownerOf(tokenId);\r\n        address buyer = msg.sender;\r\n\r\n        uint256 totalPrice = _idToNFT[tokenId].price;\r\n        uint256 artistShare = (totalPrice / 100) * ARTIST_SHARE;\r\n        uint256 sellerShare = totalPrice - artistShare;\r\n\r\n        _idToNFT[tokenId].isOnSale = false;\r\n        noOnSale--;\r\n\r\n        _transfer(seller, buyer, tokenId);\r\n        payable(seller).transfer(sellerShare);\r\n        payable(artist).transfer(artistShare);\r\n    }\r\n\r\n    function getNFTs() public view returns (NFT[] memory, string[] memory) {\r\n        uint256 count = _idNFTs.length;\r\n        NFT[] memory tokens = new NFT[](count);\r\n        string[] memory URIs = new string[](count);\r\n\r\n        for (uint256 i = 0; i < count; i++) {\r\n            uint256 tokenId = _idNFTs[i];\r\n            tokens[i] = _idToNFT[tokenId];\r\n            URIs[i] = tokenURI(tokenId);\r\n        }\r\n\r\n        return (tokens, URIs);\r\n    }\r\n\r\n    function getOwnedNFTs()\r\n        public\r\n        view\r\n        returns (NFT[] memory, string[] memory)\r\n    {\r\n        uint256 count = _idNFTs.length;\r\n        uint256 ownedCount = balanceOf(msg.sender);\r\n        NFT[] memory tokens = new NFT[](ownedCount);\r\n        string[] memory URIs = new string[](ownedCount);\r\n\r\n        uint256 tokenIndex = 0;\r\n\r\n        for (uint256 i = 0; i < count; i++) {\r\n            uint256 tokenId = _idNFTs[i];\r\n            if (ERC721.ownerOf(tokenId) == msg.sender) {\r\n                tokens[tokenIndex] = _idToNFT[tokenId];\r\n                URIs[tokenIndex] = tokenURI(tokenId);\r\n\r\n                tokenIndex++;\r\n            }\r\n        }\r\n\r\n        return (tokens, URIs);\r\n    }\r\n\r\n    function getOnSaleNFTs()\r\n        public\r\n        view\r\n        returns (NFT[] memory, string[] memory)\r\n    {\r\n        uint256 count = _idNFTs.length;\r\n        NFT[] memory tokens = new NFT[](noOnSale);\r\n        string[] memory URIs = new string[](noOnSale);\r\n\r\n        uint256 tokenIndex = 0;\r\n\r\n        for (uint256 i = 0; i < count; i++) {\r\n            uint256 tokenId = _idNFTs[i];\r\n            NFT memory token = _idToNFT[tokenId];\r\n            if (token.isOnSale) {\r\n                tokens[tokenIndex] = token;\r\n                URIs[tokenIndex] = tokenURI(tokenId);\r\n\r\n                tokenIndex++;\r\n            }\r\n        }\r\n        return (tokens, URIs);\r\n    }\r\n}\r\n",
  "sourcePath": "D:\\Master\\FoB\\musiceth\\contracts\\AudioNFT.sol",
  "compiler": {
    "name": "solc",
    "version": "0.8.17+commit.8df45f5f.Emscripten.clang"
  },
  "schemaVersion": "3.4.11",
  "updatedAt": "2023-01-19T10:51:52.332Z",
  "networkType": "ethereum",
  "devdoc": {
    "errors": {
      "OnSaleInvalid(bool)": [
        {
          "params": {
            "isOnSale": "Token selling status"
          }
        }
      ],
      "PriceNotMet(uint256,uint256)": [
        {
          "params": {
            "askingPrice": "Price of the NFT",
            "txValue": "Value of the transaction"
          }
        }
      ],
      "TokenIdInvalid(uint256)": [
        {
          "params": {
            "tokenId": "Token ID"
          }
        }
      ]
    },
    "kind": "dev",
    "methods": {
      "approve(address,uint256)": {
        "details": "See {IERC721-approve}."
      },
      "balanceOf(address)": {
        "details": "See {IERC721-balanceOf}."
      },
      "getApproved(uint256)": {
        "details": "See {IERC721-getApproved}."
      },
      "isApprovedForAll(address,address)": {
        "details": "See {IERC721-isApprovedForAll}."
      },
      "mintNFT(string)": {
        "params": {
          "tokenURI": "IPFS URI containing NFT metadata"
        }
      },
      "name()": {
        "details": "See {IERC721Metadata-name}."
      },
      "ownerOf(uint256)": {
        "details": "See {IERC721-ownerOf}."
      },
      "safeTransferFrom(address,address,uint256)": {
        "details": "See {IERC721-safeTransferFrom}."
      },
      "safeTransferFrom(address,address,uint256,bytes)": {
        "details": "See {IERC721-safeTransferFrom}."
      },
      "setApprovalForAll(address,bool)": {
        "details": "See {IERC721-setApprovalForAll}."
      },
      "supportsInterface(bytes4)": {
        "details": "See {IERC165-supportsInterface}."
      },
      "symbol()": {
        "details": "See {IERC721Metadata-symbol}."
      },
      "tokenURI(uint256)": {
        "details": "See {IERC721Metadata-tokenURI}."
      },
      "transferFrom(address,address,uint256)": {
        "details": "See {IERC721-transferFrom}."
      }
    },
    "version": 1
  },
  "userdoc": {
    "errors": {
      "CanBeCalledOnlyByOwner()": [
        {
          "notice": "The function can be called only by the owner of the token."
        }
      ],
      "OnSaleInvalid(bool)": [
        {
          "notice": "Invalid selling status."
        }
      ],
      "PriceCannotBeNegative()": [
        {
          "notice": "An invalid price was set. A positive price (> 0) is required."
        }
      ],
      "PriceNotMet(uint256,uint256)": [
        {
          "notice": "Cannot but an NFT without paying a value equal to the listing price."
        }
      ],
      "TokenIdInvalid(uint256)": [
        {
          "notice": "Invalid token ID."
        }
      ]
    },
    "kind": "user",
    "methods": {
      "mintNFT(string)": {
        "notice": "Method for minting a new AudioNFT that will also be put up for sale."
      }
    },
    "version": 1
  }
}